{
  "contractName": "CarKilometerCertification",
  "abi": [
    {
      "inputs": [],
      "payable": false,
      "stateMutability": "nonpayable",
      "type": "constructor"
    },
    {
      "constant": false,
      "inputs": [],
      "name": "initCertifications",
      "outputs": [],
      "payable": false,
      "stateMutability": "nonpayable",
      "type": "function"
    },
    {
      "constant": false,
      "inputs": [
        {
          "internalType": "string",
          "name": "licensePlate",
          "type": "string"
        },
        {
          "internalType": "uint256",
          "name": "currentKilometer",
          "type": "uint256"
        }
      ],
      "name": "certifyKilometer",
      "outputs": [],
      "payable": false,
      "stateMutability": "nonpayable",
      "type": "function"
    },
    {
      "constant": true,
      "inputs": [
        {
          "internalType": "string",
          "name": "licensePlate",
          "type": "string"
        }
      ],
      "name": "getCarKilometer",
      "outputs": [
        {
          "internalType": "uint256",
          "name": "",
          "type": "uint256"
        }
      ],
      "payable": false,
      "stateMutability": "view",
      "type": "function"
    },
    {
      "constant": true,
      "inputs": [
        {
          "internalType": "string",
          "name": "licensePlate",
          "type": "string"
        }
      ],
      "name": "getCarCertificationTimestamp",
      "outputs": [
        {
          "internalType": "uint256",
          "name": "",
          "type": "uint256"
        }
      ],
      "payable": false,
      "stateMutability": "view",
      "type": "function"
    },
    {
      "constant": true,
      "inputs": [
        {
          "internalType": "string",
          "name": "_licensePlate",
          "type": "string"
        }
      ],
      "name": "getCarCertification",
      "outputs": [
        {
          "internalType": "uint256",
          "name": "",
          "type": "uint256"
        },
        {
          "internalType": "uint256",
          "name": "",
          "type": "uint256"
        }
      ],
      "payable": false,
      "stateMutability": "view",
      "type": "function"
    }
  ],
  "bytecode": "0x60806040523480156200001157600080fd5b50620000226200002860201b60201c565b620004b7565b620000716040518060400160405280600681526020017f4142433132330000000000000000000000000000000000000000000000000000815250614e206200010760201b60201c565b620000bb6040518060400160405280600681526020017f444546343536000000000000000000000000000000000000000000000000000081525062030d406200010760201b60201c565b620001056040518060400160405280600781526020017f515745523738390000000000000000000000000000000000000000000000000081525062030d406200010760201b60201c565b565b600080836040518082805190602001908083835b602083106200014057805182526020820191506020810190506020830392506200011b565b6001836020036101000a0380198251168184511680821785525050505050509050019150509081526020016040518091039020600001805460018160011615610100020316600290049050141562000254576040518060600160405280838152602001828152602001428152506000836040518082805190602001908083835b60208310620001e55780518252602082019150602081019050602083039250620001c0565b6001836020036101000a038019825116818451168082178552505050505050905001915050908152602001604051809103902060008201518160000190805190602001906200023692919062000408565b50602082015181600101556040820151816002015590505062000404565b6000826040518082805190602001908083835b602083106200028c578051825260208201915060208101905060208303925062000267565b6001836020036101000a0380198251168184511680821785525050505050509050019150509081526020016040518091039020600101548110156200031d576040517f08c379a000000000000000000000000000000000000000000000000000000000815260040180806020018281038252603a81526020018062000f02603a913960400191505060405180910390fd5b806000836040518082805190602001908083835b6020831062000356578051825260208201915060208101905060208303925062000331565b6001836020036101000a038019825116818451168082178552505050505050905001915050908152602001604051809103902060010181905550426000836040518082805190602001908083835b60208310620003c95780518252602082019150602081019050602083039250620003a4565b6001836020036101000a0380198251168184511680821785525050505050509050019150509081526020016040518091039020600201819055505b5050565b828054600181600116156101000203166002900490600052602060002090601f016020900481019282601f106200044b57805160ff19168380011785556200047c565b828001600101855582156200047c579182015b828111156200047b5782518255916020019190600101906200045e565b5b5090506200048b91906200048f565b5090565b620004b491905b80821115620004b057600081600090555060010162000496565b5090565b90565b610a3b80620004c76000396000f3fe608060405234801561001057600080fd5b50600436106100575760003560e01c80636e60da1a1461005c57806370a5bf4e1461012157806387317f6d146101f7578063960b4e5d146102c6578063dcd374f714610395575b600080fd5b61011f6004803603604081101561007257600080fd5b810190808035906020019064010000000081111561008f57600080fd5b8201836020820111156100a157600080fd5b803590602001918460018302840111640100000000831117156100c357600080fd5b91908080601f016020809104026020016040519081016040528093929190818152602001838380828437600081840152601f19601f8201169050808301925050505050505091929192908035906020019092919050505061039f565b005b6101da6004803603602081101561013757600080fd5b810190808035906020019064010000000081111561015457600080fd5b82018360208201111561016657600080fd5b8035906020019184600183028401116401000000008311171561018857600080fd5b91908080601f016020809104026020016040519081016040528093929190818152602001838380828437600081840152601f19601f820116905080830192505050505050509192919290505050610690565b604051808381526020018281526020019250505060405180910390f35b6102b06004803603602081101561020d57600080fd5b810190808035906020019064010000000081111561022a57600080fd5b82018360208201111561023c57600080fd5b8035906020019184600183028401116401000000008311171561025e57600080fd5b91908080601f016020809104026020016040519081016040528093929190818152602001838380828437600081840152601f19601f820116905080830192505050505050509192919290505050610776565b6040518082815260200191505060405180910390f35b61037f600480360360208110156102dc57600080fd5b81019080803590602001906401000000008111156102f957600080fd5b82018360208201111561030b57600080fd5b8035906020019184600183028401116401000000008311171561032d57600080fd5b91908080601f016020809104026020016040519081016040528093929190818152602001838380828437600081840152601f19601f8201169050808301925050505050505091929192905050506107eb565b6040518082815260200191505060405180910390f35b61039d610860565b005b600080836040518082805190602001908083835b602083106103d657805182526020820191506020810190506020830392506103b3565b6001836020036101000a038019825116818451168082178552505050505050905001915050908152602001604051809103902060000180546001816001161561010002031660029004905014156104e4576040518060600160405280838152602001828152602001428152506000836040518082805190602001908083835b602083106104785780518252602082019150602081019050602083039250610455565b6001836020036101000a038019825116818451168082178552505050505050905001915050908152602001604051809103902060008201518160000190805190602001906104c7929190610927565b50602082015181600101556040820151816002015590505061068c565b6000826040518082805190602001908083835b6020831061051a57805182526020820191506020810190506020830392506104f7565b6001836020036101000a0380198251168184511680821785525050505050509050019150509081526020016040518091039020600101548110156105a9576040517f08c379a000000000000000000000000000000000000000000000000000000000815260040180806020018281038252603a8152602001806109cd603a913960400191505060405180910390fd5b806000836040518082805190602001908083835b602083106105e057805182526020820191506020810190506020830392506105bd565b6001836020036101000a038019825116818451168082178552505050505050905001915050908152602001604051809103902060010181905550426000836040518082805190602001908083835b60208310610651578051825260208201915060208101905060208303925061062e565b6001836020036101000a0380198251168184511680821785525050505050509050019150509081526020016040518091039020600201819055505b5050565b6000806000836040518082805190602001908083835b602083106106c957805182526020820191506020810190506020830392506106a6565b6001836020036101000a0380198251168184511680821785525050505050509050019150509081526020016040518091039020600101546000846040518082805190602001908083835b602083106107365780518252602082019150602081019050602083039250610713565b6001836020036101000a03801982511681845116808217855250505050505090500191505090815260200160405180910390206002015491509150915091565b600080826040518082805190602001908083835b602083106107ad578051825260208201915060208101905060208303925061078a565b6001836020036101000a0380198251168184511680821785525050505050509050019150509081526020016040518091039020600201549050919050565b600080826040518082805190602001908083835b6020831061082257805182526020820191506020810190506020830392506107ff565b6001836020036101000a0380198251168184511680821785525050505050509050019150509081526020016040518091039020600101549050919050565b6108a16040518060400160405280600681526020017f4142433132330000000000000000000000000000000000000000000000000000815250614e2061039f565b6108e36040518060400160405280600681526020017f444546343536000000000000000000000000000000000000000000000000000081525062030d4061039f565b6109256040518060400160405280600781526020017f515745523738390000000000000000000000000000000000000000000000000081525062030d4061039f565b565b828054600181600116156101000203166002900490600052602060002090601f016020900481019282601f1061096857805160ff1916838001178555610996565b82800160010185558215610996579182015b8281111561099557825182559160200191906001019061097a565b5b5090506109a391906109a7565b5090565b6109c991905b808211156109c55760008160009055506001016109ad565b5090565b9056fe4e6577206b696c6f6d657465722076616c75652073686f756c64206e6f74206265206c657373207468616e2070726576696f75732076616c7565a265627a7a72315820c4bd44ff727904790b3d9661a82642f7ac912af8434e71d200671dfcce75393e64736f6c634300051000324e6577206b696c6f6d657465722076616c75652073686f756c64206e6f74206265206c657373207468616e2070726576696f75732076616c7565",
  "source": "pragma solidity ^0.5.0;\n\n\ncontract CarKilometerCertification {\nconstructor() public {\n    initCertifications();\n}\n\nfunction initCertifications() public {\n    // Aquí es donde puedes agregar los certificados iniciales\n    // utilizando la función `certifyKilometer` del contrato.\n    //estos certificados se usan para no inicalizar la blockchain vacia y probar el frontend\n    // Por ejemplo:\n    certifyKilometer(\"ABC123\", 20000);\n    certifyKilometer(\"DEF456\", 200000);\n    certifyKilometer(\"QWER789\", 200000);\n}\n\n    struct Car {\n        string  licensePlate;\n        uint256  kilometer;\n        uint256  certifiedTimestamp;\n    }\n\n    mapping (string => Car) cars;\n\n    //Certifica un nuevo kilometraje con su timestamp correspondiente\n    function certifyKilometer(string memory licensePlate, uint256 currentKilometer) public {\n        if (bytes(cars[licensePlate].licensePlate).length == 0) {\n            cars[licensePlate] = Car(licensePlate, currentKilometer, block.timestamp);\n        }\n        else {\n            require(currentKilometer >= cars[licensePlate].kilometer, \"New kilometer value should not be less than previous value\");\n            cars[licensePlate].kilometer = currentKilometer;\n            cars[licensePlate].certifiedTimestamp = block.timestamp;\n        }\n    }\n\n    //devuelve los kilometros actuales del coche\n    function getCarKilometer(string memory licensePlate) public view returns (uint256) {\n        return cars[licensePlate].kilometer;\n    }\n\n    //Devuelve el timestamp de la última certificación\n    function getCarCertificationTimestamp(string memory licensePlate) public view returns (uint256) {\n        return cars[licensePlate].certifiedTimestamp;\n    }\n\n    function getCarCertification(string memory _licensePlate) public view returns (uint256, uint256) {\n    return (cars[_licensePlate].kilometer, cars[_licensePlate].certifiedTimestamp);\n    }\n\n}\n\n\n",
  "sourcePath": "/home/lionheart/Uni/PTI/project/car-tracking-fullstack/blockchain/contracts/CarKilometerCertification.sol",
  "compiler": {
    "name": "solc",
    "version": "0.5.16+commit.9c3226ce.Emscripten.clang"
  },
  "schemaVersion": "3.4.13",
  "updatedAt": "2023-05-08T09:33:21.840Z",
  "networkType": "ethereum",
  "devdoc": {
    "methods": {}
  },
  "userdoc": {
    "methods": {}
  }
}